{
  "address": "0xB6a3C0Ddc88C69F3A4a28A1AE1FE2430f0aBCE54",
  "abi": [
    {
      "inputs": [
        {
          "internalType": "contract EmbrToken",
          "name": "_embr",
          "type": "address"
        },
        {
          "internalType": "address",
          "name": "_treasuryAddress",
          "type": "address"
        },
        {
          "internalType": "uint256",
          "name": "_embrPerBlock",
          "type": "uint256"
        },
        {
          "internalType": "uint256",
          "name": "_startBlock",
          "type": "uint256"
        }
      ],
      "stateMutability": "nonpayable",
      "type": "constructor"
    },
    {
      "anonymous": false,
      "inputs": [
        {
          "indexed": true,
          "internalType": "address",
          "name": "user",
          "type": "address"
        },
        {
          "indexed": true,
          "internalType": "uint256",
          "name": "pid",
          "type": "uint256"
        },
        {
          "indexed": false,
          "internalType": "uint256",
          "name": "amount",
          "type": "uint256"
        },
        {
          "indexed": true,
          "internalType": "address",
          "name": "to",
          "type": "address"
        }
      ],
      "name": "Deposit",
      "type": "event"
    },
    {
      "anonymous": false,
      "inputs": [
        {
          "indexed": true,
          "internalType": "address",
          "name": "user",
          "type": "address"
        },
        {
          "indexed": true,
          "internalType": "uint256",
          "name": "pid",
          "type": "uint256"
        },
        {
          "indexed": false,
          "internalType": "uint256",
          "name": "amount",
          "type": "uint256"
        },
        {
          "indexed": true,
          "internalType": "address",
          "name": "to",
          "type": "address"
        }
      ],
      "name": "EmergencyWithdraw",
      "type": "event"
    },
    {
      "anonymous": false,
      "inputs": [
        {
          "indexed": true,
          "internalType": "address",
          "name": "user",
          "type": "address"
        },
        {
          "indexed": true,
          "internalType": "uint256",
          "name": "pid",
          "type": "uint256"
        },
        {
          "indexed": false,
          "internalType": "uint256",
          "name": "amount",
          "type": "uint256"
        }
      ],
      "name": "Harvest",
      "type": "event"
    },
    {
      "anonymous": false,
      "inputs": [
        {
          "indexed": true,
          "internalType": "uint256",
          "name": "pid",
          "type": "uint256"
        },
        {
          "indexed": false,
          "internalType": "uint256",
          "name": "allocPoint",
          "type": "uint256"
        },
        {
          "indexed": true,
          "internalType": "contract IERC20",
          "name": "lpToken",
          "type": "address"
        },
        {
          "indexed": true,
          "internalType": "contract IRewarder",
          "name": "rewarder",
          "type": "address"
        }
      ],
      "name": "LogPoolAddition",
      "type": "event"
    },
    {
      "anonymous": false,
      "inputs": [
        {
          "indexed": true,
          "internalType": "uint256",
          "name": "pid",
          "type": "uint256"
        },
        {
          "indexed": false,
          "internalType": "uint256",
          "name": "allocPoint",
          "type": "uint256"
        },
        {
          "indexed": true,
          "internalType": "contract IRewarder",
          "name": "rewarder",
          "type": "address"
        },
        {
          "indexed": false,
          "internalType": "bool",
          "name": "overwrite",
          "type": "bool"
        }
      ],
      "name": "LogSetPool",
      "type": "event"
    },
    {
      "anonymous": false,
      "inputs": [
        {
          "indexed": true,
          "internalType": "uint256",
          "name": "pid",
          "type": "uint256"
        },
        {
          "indexed": false,
          "internalType": "uint256",
          "name": "lastRewardBlock",
          "type": "uint256"
        },
        {
          "indexed": false,
          "internalType": "uint256",
          "name": "lpSupply",
          "type": "uint256"
        },
        {
          "indexed": false,
          "internalType": "uint256",
          "name": "accEmbrPerShare",
          "type": "uint256"
        }
      ],
      "name": "LogUpdatePool",
      "type": "event"
    },
    {
      "anonymous": false,
      "inputs": [
        {
          "indexed": true,
          "internalType": "address",
          "name": "previousOwner",
          "type": "address"
        },
        {
          "indexed": true,
          "internalType": "address",
          "name": "newOwner",
          "type": "address"
        }
      ],
      "name": "OwnershipTransferred",
      "type": "event"
    },
    {
      "anonymous": false,
      "inputs": [
        {
          "indexed": true,
          "internalType": "address",
          "name": "oldAddress",
          "type": "address"
        },
        {
          "indexed": true,
          "internalType": "address",
          "name": "newAddress",
          "type": "address"
        }
      ],
      "name": "SetTreasuryAddress",
      "type": "event"
    },
    {
      "anonymous": false,
      "inputs": [
        {
          "indexed": true,
          "internalType": "address",
          "name": "user",
          "type": "address"
        },
        {
          "indexed": false,
          "internalType": "uint256",
          "name": "_embrPerSec",
          "type": "uint256"
        }
      ],
      "name": "UpdateEmissionRate",
      "type": "event"
    },
    {
      "anonymous": false,
      "inputs": [
        {
          "indexed": true,
          "internalType": "address",
          "name": "user",
          "type": "address"
        },
        {
          "indexed": true,
          "internalType": "uint256",
          "name": "pid",
          "type": "uint256"
        },
        {
          "indexed": false,
          "internalType": "uint256",
          "name": "amount",
          "type": "uint256"
        },
        {
          "indexed": true,
          "internalType": "address",
          "name": "to",
          "type": "address"
        }
      ],
      "name": "Withdraw",
      "type": "event"
    },
    {
      "inputs": [],
      "name": "POOL_PERCENTAGE",
      "outputs": [
        {
          "internalType": "uint256",
          "name": "",
          "type": "uint256"
        }
      ],
      "stateMutability": "view",
      "type": "function"
    },
    {
      "inputs": [],
      "name": "TREASURY_PERCENTAGE",
      "outputs": [
        {
          "internalType": "uint256",
          "name": "",
          "type": "uint256"
        }
      ],
      "stateMutability": "view",
      "type": "function"
    },
    {
      "inputs": [
        {
          "internalType": "uint256",
          "name": "_allocPoint",
          "type": "uint256"
        },
        {
          "internalType": "contract IERC20",
          "name": "_lpToken",
          "type": "address"
        },
        {
          "internalType": "contract IRewarder",
          "name": "_rewarder",
          "type": "address"
        }
      ],
      "name": "add",
      "outputs": [],
      "stateMutability": "nonpayable",
      "type": "function"
    },
    {
      "inputs": [
        {
          "internalType": "uint256",
          "name": "_pid",
          "type": "uint256"
        },
        {
          "internalType": "uint256",
          "name": "_amount",
          "type": "uint256"
        },
        {
          "internalType": "address",
          "name": "_to",
          "type": "address"
        }
      ],
      "name": "deposit",
      "outputs": [],
      "stateMutability": "nonpayable",
      "type": "function"
    },
    {
      "inputs": [],
      "name": "embr",
      "outputs": [
        {
          "internalType": "contract EmbrToken",
          "name": "",
          "type": "address"
        }
      ],
      "stateMutability": "view",
      "type": "function"
    },
    {
      "inputs": [],
      "name": "embrPerBlock",
      "outputs": [
        {
          "internalType": "uint256",
          "name": "",
          "type": "uint256"
        }
      ],
      "stateMutability": "view",
      "type": "function"
    },
    {
      "inputs": [
        {
          "internalType": "uint256",
          "name": "_pid",
          "type": "uint256"
        },
        {
          "internalType": "address",
          "name": "_to",
          "type": "address"
        }
      ],
      "name": "emergencyWithdraw",
      "outputs": [],
      "stateMutability": "nonpayable",
      "type": "function"
    },
    {
      "inputs": [
        {
          "internalType": "uint256",
          "name": "_pid",
          "type": "uint256"
        },
        {
          "internalType": "address",
          "name": "_to",
          "type": "address"
        }
      ],
      "name": "harvest",
      "outputs": [],
      "stateMutability": "nonpayable",
      "type": "function"
    },
    {
      "inputs": [
        {
          "internalType": "uint256[]",
          "name": "_pids",
          "type": "uint256[]"
        },
        {
          "internalType": "address",
          "name": "_to",
          "type": "address"
        }
      ],
      "name": "harvestAll",
      "outputs": [],
      "stateMutability": "nonpayable",
      "type": "function"
    },
    {
      "inputs": [
        {
          "internalType": "uint256",
          "name": "",
          "type": "uint256"
        }
      ],
      "name": "lpTokens",
      "outputs": [
        {
          "internalType": "contract IERC20",
          "name": "",
          "type": "address"
        }
      ],
      "stateMutability": "view",
      "type": "function"
    },
    {
      "inputs": [
        {
          "internalType": "uint256[]",
          "name": "pids",
          "type": "uint256[]"
        }
      ],
      "name": "massUpdatePools",
      "outputs": [],
      "stateMutability": "nonpayable",
      "type": "function"
    },
    {
      "inputs": [],
      "name": "owner",
      "outputs": [
        {
          "internalType": "address",
          "name": "",
          "type": "address"
        }
      ],
      "stateMutability": "view",
      "type": "function"
    },
    {
      "inputs": [
        {
          "internalType": "uint256",
          "name": "_pid",
          "type": "uint256"
        },
        {
          "internalType": "address",
          "name": "_user",
          "type": "address"
        }
      ],
      "name": "pendingEmbr",
      "outputs": [
        {
          "internalType": "uint256",
          "name": "pending",
          "type": "uint256"
        }
      ],
      "stateMutability": "view",
      "type": "function"
    },
    {
      "inputs": [
        {
          "internalType": "uint256",
          "name": "",
          "type": "uint256"
        }
      ],
      "name": "poolInfo",
      "outputs": [
        {
          "internalType": "uint256",
          "name": "allocPoint",
          "type": "uint256"
        },
        {
          "internalType": "uint256",
          "name": "lastRewardBlock",
          "type": "uint256"
        },
        {
          "internalType": "uint256",
          "name": "accEmbrPerShare",
          "type": "uint256"
        }
      ],
      "stateMutability": "view",
      "type": "function"
    },
    {
      "inputs": [],
      "name": "poolLength",
      "outputs": [
        {
          "internalType": "uint256",
          "name": "",
          "type": "uint256"
        }
      ],
      "stateMutability": "view",
      "type": "function"
    },
    {
      "inputs": [],
      "name": "renounceOwnership",
      "outputs": [],
      "stateMutability": "nonpayable",
      "type": "function"
    },
    {
      "inputs": [
        {
          "internalType": "uint256",
          "name": "",
          "type": "uint256"
        }
      ],
      "name": "rewarder",
      "outputs": [
        {
          "internalType": "contract IRewarder",
          "name": "",
          "type": "address"
        }
      ],
      "stateMutability": "view",
      "type": "function"
    },
    {
      "inputs": [
        {
          "internalType": "uint256",
          "name": "_pid",
          "type": "uint256"
        },
        {
          "internalType": "uint256",
          "name": "_allocPoint",
          "type": "uint256"
        },
        {
          "internalType": "contract IRewarder",
          "name": "_rewarder",
          "type": "address"
        },
        {
          "internalType": "bool",
          "name": "overwrite",
          "type": "bool"
        }
      ],
      "name": "set",
      "outputs": [],
      "stateMutability": "nonpayable",
      "type": "function"
    },
    {
      "inputs": [],
      "name": "startBlock",
      "outputs": [
        {
          "internalType": "uint256",
          "name": "",
          "type": "uint256"
        }
      ],
      "stateMutability": "view",
      "type": "function"
    },
    {
      "inputs": [],
      "name": "totalAllocPoint",
      "outputs": [
        {
          "internalType": "uint256",
          "name": "",
          "type": "uint256"
        }
      ],
      "stateMutability": "view",
      "type": "function"
    },
    {
      "inputs": [
        {
          "internalType": "address",
          "name": "newOwner",
          "type": "address"
        }
      ],
      "name": "transferOwnership",
      "outputs": [],
      "stateMutability": "nonpayable",
      "type": "function"
    },
    {
      "inputs": [
        {
          "internalType": "address",
          "name": "_treasuryAddress",
          "type": "address"
        }
      ],
      "name": "treasury",
      "outputs": [],
      "stateMutability": "nonpayable",
      "type": "function"
    },
    {
      "inputs": [],
      "name": "treasuryAddress",
      "outputs": [
        {
          "internalType": "address",
          "name": "",
          "type": "address"
        }
      ],
      "stateMutability": "view",
      "type": "function"
    },
    {
      "inputs": [
        {
          "internalType": "uint256",
          "name": "_embrPerBlock",
          "type": "uint256"
        }
      ],
      "name": "updateEmissionRate",
      "outputs": [],
      "stateMutability": "nonpayable",
      "type": "function"
    },
    {
      "inputs": [
        {
          "internalType": "uint256",
          "name": "_pid",
          "type": "uint256"
        }
      ],
      "name": "updatePool",
      "outputs": [
        {
          "components": [
            {
              "internalType": "uint256",
              "name": "allocPoint",
              "type": "uint256"
            },
            {
              "internalType": "uint256",
              "name": "lastRewardBlock",
              "type": "uint256"
            },
            {
              "internalType": "uint256",
              "name": "accEmbrPerShare",
              "type": "uint256"
            }
          ],
          "internalType": "struct EmbrMasterChef.PoolInfo",
          "name": "pool",
          "type": "tuple"
        }
      ],
      "stateMutability": "nonpayable",
      "type": "function"
    },
    {
      "inputs": [
        {
          "internalType": "uint256",
          "name": "",
          "type": "uint256"
        },
        {
          "internalType": "address",
          "name": "",
          "type": "address"
        }
      ],
      "name": "userInfo",
      "outputs": [
        {
          "internalType": "uint256",
          "name": "amount",
          "type": "uint256"
        },
        {
          "internalType": "uint256",
          "name": "rewardDebt",
          "type": "uint256"
        }
      ],
      "stateMutability": "view",
      "type": "function"
    },
    {
      "inputs": [
        {
          "internalType": "uint256",
          "name": "_pid",
          "type": "uint256"
        },
        {
          "internalType": "uint256",
          "name": "_amount",
          "type": "uint256"
        },
        {
          "internalType": "address",
          "name": "_to",
          "type": "address"
        }
      ],
      "name": "withdrawAndHarvest",
      "outputs": [],
      "stateMutability": "nonpayable",
      "type": "function"
    }
  ],
  "transactionHash": "0x85f5dabe840f21503657d53ea44c72d54d84c3bcb7583491bcee1971bedf27fa",
  "args": [
    "0xe7a282dA986F01dE6677250C90cE22A819CE9a9d",
    "0x847bb5E826a4EF000BF88ba947d1df2D69879A8F",
    "505000000000000000",
    "2200000"
  ],
  "solcInputHash": "8ba5a3eed3eb513e683ef8116d825a26",
  "bytecode": "0x60806040526000600a553480156200001657600080fd5b506040516200227f3803806200227f83398101604081905262000039916200014b565b6200004433620000fb565b6753444835ec580000821115620000bc5760405162461bcd60e51b815260206004820152603260248201527f6d6178696d756d20656d697373696f6e2072617465206f66203620656d6272206044820152711c195c88189b1bd8dac8195e18d95959195960721b606482015260840160405180910390fd5b600180546001600160a01b039586166001600160a01b0319918216179091556002805494909516931692909217909255600391909155600b55620001b1565b600080546001600160a01b038381166001600160a01b0319831681178455604051919092169283917f8be0079c531659141344cd1fd0a4f28419497f9722a3daafe3b4186f6b6457e09190a35050565b600080600080608085870312156200016257600080fd5b84516200016f8162000198565b6020860151909450620001828162000198565b6040860151606090960151949790965092505050565b6001600160a01b0381168114620001ae57600080fd5b50565b6120be80620001c16000396000f3fe608060405234801561001057600080fd5b50600436106101a95760003560e01c806357a5b58c116100f957806393f1a40b11610097578063c346253d11610071578063c346253d146103b2578063c5f956af146103c5578063d1abb907146103d8578063f2fde38b146103eb57600080fd5b806393f1a40b146103455780639be8ccad1461038c578063ab7de0981461039f57600080fd5b806388bba42f116100d357806388bba42f146102fb5780638da5cb5b1461030e5780638dbdbe6d1461031f578063908ce9971461033257600080fd5b806357a5b58c146102d7578063715018a6146102ea5780637edf65ee146102f257600080fd5b80631bb5e2dc1161016657806339e5f4ff1161014057806339e5f4ff1461027d57806348cd4cb1146102865780634bf37df61461028f57806351eb05a6146102a257600080fd5b80631bb5e2dc1461022c5780632d809cb6146102575780632f940c701461026a57600080fd5b8063081e3eda146101ae5780630ba84cd2146101c55780631526fe27146101da578063173b31d81461020857806317caf6f11461021057806318fccc7614610219575b600080fd5b6004545b6040519081526020015b60405180910390f35b6101d86101d3366004611dbe565b6103fe565b005b6101ed6101e8366004611dbe565b6104e1565b604080519384526020840192909252908201526060016101bc565b6101b2608081565b6101b2600a5481565b6101d8610227366004611df0565b610514565b61023f61023a366004611dbe565b610665565b6040516001600160a01b0390911681526020016101bc565b6101d8610265366004611ceb565b61068f565b6101d8610278366004611df0565b610705565b6101b261036881565b6101b2600b5481565b6101d861029d366004611d4a565b610850565b6102b56102b0366004611dbe565b6108da565b60408051825181526020808401519082015291810151908201526060016101bc565b6101d86102e5366004611d08565b610c09565b6101d8610c47565b6101b260035481565b6101d8610309366004611e85565b610c7d565b6000546001600160a01b031661023f565b6101d861032d366004611e57565b610e51565b6101b2610340366004611df0565b610fef565b610377610353366004611df0565b60096020908152600092835260408084209091529082529020805460019091015482565b604080519283526020830191909152016101bc565b60015461023f906001600160a01b031681565b6101d86103ad366004611e20565b6111b2565b61023f6103c0366004611dbe565b6114ad565b60025461023f906001600160a01b031681565b6101d86103e6366004611e57565b6114bd565b6101d86103f9366004611ceb565b611707565b6000546001600160a01b031633146104315760405162461bcd60e51b815260040161042890611f1e565b60405180910390fd5b6753444835ec5800008111156104a45760405162461bcd60e51b815260206004820152603260248201527f6d6178696d756d20656d697373696f6e2072617465206f66203620656d6272206044820152711c195c88189b1bd8dac8195e18d95959195960721b6064820152608401610428565b600381905560405181815233907fe2492e003bbe8afa53088b406f0c1cb5d9e280370fc72a74cf116ffd343c40539060200160405180910390a250565b600481815481106104f157600080fd5b600091825260209091206003909102018054600182015460029092015490925083565b600061051f836108da565b6000848152600960209081526040808320338452909152808220908301518154939450909264e8d4a510009161055491611fbc565b61055e9190611f9a565b905060008260010154826105729190611fdb565b600184018390559050801561058b5761058b85826117a2565b6000600887815481106105a0576105a061204f565b6000918252602090912001546001600160a01b031690508015610625578354604051630d469fc960e21b81526001600160a01b0383169163351a7f24916105f2918b9133918c91899190600401611f53565b600060405180830381600087803b15801561060c57600080fd5b505af1158015610620573d6000803e3d6000fd5b505050505b604051828152879033907f71bab65ced2e5750775a0613be067df48ef06cf92a496ebf7663ae06609249549060200160405180910390a350505050505050565b6005818154811061067557600080fd5b6000918252602090912001546001600160a01b0316905081565b6000546001600160a01b031633146106b95760405162461bcd60e51b815260040161042890611f1e565b600280546001600160a01b0319166001600160a01b03831690811790915560405181907f61885cdba916be748ff3e3f6f15e4206153b8ea3b7acabade9d04b4063a8351090600090a350565b600082815260096020908152604080832033845290915281208054828255600182018390556008805492939192869081106107425761074261204f565b6000918252602090912001546001600160a01b0316905080156107c757604051630d469fc960e21b81526001600160a01b0382169063351a7f2490610794908890339089906000908190600401611f53565b600060405180830381600087803b1580156107ae57600080fd5b505af11580156107c2573d6000803e3d6000fd5b505050505b6107fb8483600588815481106107df576107df61204f565b6000918252602090912001546001600160a01b031691906118ed565b836001600160a01b031685336001600160a01b03167f2cac5e20e1541d836381527a43f651851e302817b71dc8e810284e69210c1c6b8560405161084191815260200190565b60405180910390a45050505050565b60005b828110156108d4576000600960008686858181106108735761087361204f565b60209081029290920135835250818101929092526040908101600090812033825290925290205411156108c2576108c28484838181106108b5576108b561204f565b9050602002013583610514565b806108cc8161201e565b915050610853565b50505050565b6108fe60405180606001604052806000815260200160008152602001600081525090565b600482815481106109115761091161204f565b600091825260209182902060408051606081018252600390930290910180548352600181015493830184905260020154908201529150431115610c04576000600583815481106109635761096361204f565b6000918252602090912001546040516370a0823160e01b81523060048201526001600160a01b03909116906370a082319060240160206040518083038186803b1580156109af57600080fd5b505afa1580156109c3573d6000803e3d6000fd5b505050506040513d601f19601f820116820180604052508101906109e79190611dd7565b90508015610b74576000826020015143610a019190611fdb565b600a548451600354929350600092610a199085611fbc565b610a239190611fbc565b610a2d9190611f9a565b905060006103e8610a4061036884611fbc565b610a4a9190611f9a565b6001546002549192506001600160a01b03908116916340c10f1991166103e8610a74608087611fbc565b610a7e9190611f9a565b6040516001600160e01b031960e085901b1681526001600160a01b0390921660048301526024820152604401600060405180830381600087803b158015610ac457600080fd5b505af1158015610ad8573d6000803e3d6000fd5b50506001546040516340c10f1960e01b8152306004820152602481018590526001600160a01b0390911692506340c10f199150604401600060405180830381600087803b158015610b2857600080fd5b505af1158015610b3c573d6000803e3d6000fd5b505050508364e8d4a5100082610b529190611fbc565b610b5c9190611f9a565b8560400151610b6b9190611f82565b60408601525050505b4360208301526004805483919085908110610b9157610b9161204f565b60009182526020918290208351600390920201908155828201516001820155604092830151600290910155838101518483015183519182529181018490529182015283907fcb7325664a4a3b7c7223eefc492a97ca4fdf94d46884621e5a8fae5a04b2b9d29060600160405180910390a2505b919050565b8060005b818110156108d457610c36848483818110610c2a57610c2a61204f565b905060200201356108da565b50610c408161201e565b9050610c0d565b6000546001600160a01b03163314610c715760405162461bcd60e51b815260040161042890611f1e565b610c7b6000611950565b565b6000546001600160a01b03163314610ca75760405162461bcd60e51b815260040161042890611f1e565b813b151580610cbd57506001600160a01b038216155b610d185760405162461bcd60e51b815260206004820152602660248201527f7365743a207265776172646572206d75737420626520636f6e7472616374206f60448201526572207a65726f60d01b6064820152608401610428565b8260048581548110610d2c57610d2c61204f565b906000526020600020906003020160000154600a54610d4b9190611fdb565b610d559190611f82565b600a819055508260048581548110610d6f57610d6f61204f565b60009182526020909120600390910201558015610dc9578160088581548110610d9a57610d9a61204f565b9060005260206000200160006101000a8154816001600160a01b0302191690836001600160a01b031602179055505b80610dfb5760088481548110610de157610de161204f565b6000918252602090912001546001600160a01b0316610dfd565b815b6001600160a01b0316847f95895a6ab1df54420d241b55243258a33e61b2194db66c1179ec521aae8e18658584604051610e439291909182521515602082015260400190565b60405180910390a350505050565b6000610e5c846108da565b60008581526009602090815260408083206001600160a01b03871684529091529020805491925090610e8f908590611f82565b8155604082015164e8d4a5100090610ea79086611fbc565b610eb19190611f9a565b8160010154610ec09190611f82565b8160010181905550600060088681548110610edd57610edd61204f565b6000918252602090912001546001600160a01b031690508015610f63578154604051630d469fc960e21b81526001600160a01b0383169163351a7f2491610f30918a918991829160009190600401611f53565b600060405180830381600087803b158015610f4a57600080fd5b505af1158015610f5e573d6000803e3d6000fd5b505050505b610f9933308760058a81548110610f7c57610f7c61204f565b6000918252602090912001546001600160a01b03169291906119a0565b836001600160a01b031686336001600160a01b03167f02d7e648dd130fc184d383e55bb126ac4c9c60e8f94bf05acdf557ba2d540b4788604051610fdf91815260200190565b60405180910390a4505050505050565b600080600484815481106110055761100561204f565b600091825260208083208784526009825260408085206001600160a01b038916865290925290832060039290920201600281015460058054929550929390929091889081106110565761105661204f565b6000918252602090912001546040516370a0823160e01b81523060048201526001600160a01b03909116906370a082319060240160206040518083038186803b1580156110a257600080fd5b505afa1580156110b6573d6000803e3d6000fd5b505050506040513d601f19601f820116820180604052508101906110da9190611dd7565b90508360010154431180156110ee57508015155b1561117a5760008460010154436111059190611fdb565b600a54865460035492935060009261111d9085611fbc565b6111279190611fbc565b6111319190611f9a565b905060006103e861114461036884611fbc565b61114e9190611f9a565b90508361116064e8d4a5100083611fbc565b61116a9190611f9a565b6111749086611f82565b94505050505b6001830154835464e8d4a5100090611193908590611fbc565b61119d9190611f9a565b6111a79190611fdb565b979650505050505050565b6000546001600160a01b031633146111dc5760405162461bcd60e51b815260040161042890611f1e565b813b6112395760405162461bcd60e51b815260206004820152602660248201527f6164643a204c5020746f6b656e206d75737420626520612076616c696420636f6044820152651b9d1c9858dd60d21b6064820152608401610428565b803b15158061124f57506001600160a01b038116155b6112aa5760405162461bcd60e51b815260206004820152602660248201527f6164643a207265776172646572206d75737420626520636f6e7472616374206f60448201526572207a65726f60d01b6064820152608401610428565b6112b56006836119d8565b156112fa5760405162461bcd60e51b81526020600482015260156024820152741859190e88131408185b1c9958591e481859191959605a1b6044820152606401610428565b6000600b54431161130d57600b5461130f565b435b905083600a5461131f9190611f82565b600a55600580546001810182556000919091527f036b6384b5eca791c62761152d0c79bb0604c104a5fb6f4eb0703f3154bb3db00180546001600160a01b0319166001600160a01b0385161790556113786006846119ff565b506008805460018082019092557ff3f7a9fe364faab93b216da50a3214154f22a0a2b415b23a84c8169e8b636ee30180546001600160a01b0319166001600160a01b0385811691821790925560408051606081018252888152602081018681526000928201838152600480548089018255945291517f8a35acfbc15ff81a39ae7d344fd709f28e8600b4aa8c65c6b64bfe7fe36bd19b600390940293840155517f8a35acfbc15ff81a39ae7d344fd709f28e8600b4aa8c65c6b64bfe7fe36bd19c830155517f8a35acfbc15ff81a39ae7d344fd709f28e8600b4aa8c65c6b64bfe7fe36bd19d9091015560055490929186169161147491611fdb565b6040518781527f81ee0f8c5c46e2cb41984886f77a84181724abb86c32a5f6de539b07509d45e59060200160405180910390a450505050565b6008818154811061067557600080fd5b60006114c8846108da565b600085815260096020908152604080832033845290915290208054919250908411156115425760405162461bcd60e51b815260206004820152602360248201527f63616e6e6f74207769746864726177206d6f7265207468616e206465706f73696044820152621d195960ea1b6064820152608401610428565b600064e8d4a510008360400151836000015461155e9190611fbc565b6115689190611f9a565b9050600082600101548261157c9190611fdb565b905064e8d4a510008460400151876115949190611fbc565b61159e9190611f9a565b6115a89083611fdb565b600184015582546115ba908790611fdb565b83556115c685826117a2565b6000600888815481106115db576115db61204f565b6000918252602090912001546001600160a01b031690508015611660578354604051630d469fc960e21b81526001600160a01b0383169163351a7f249161162d918c9133918c91899190600401611f53565b600060405180830381600087803b15801561164757600080fd5b505af115801561165b573d6000803e3d6000fd5b505050505b611678868860058b815481106107df576107df61204f565b856001600160a01b031688336001600160a01b03167f8166bf25f8a2b7ed3c85049207da4358d16edbed977d23fa2ee6f0dde3ec21328a6040516116be91815260200190565b60405180910390a4604051828152889033907f71bab65ced2e5750775a0613be067df48ef06cf92a496ebf7663ae06609249549060200160405180910390a35050505050505050565b6000546001600160a01b031633146117315760405162461bcd60e51b815260040161042890611f1e565b6001600160a01b0381166117965760405162461bcd60e51b815260206004820152602660248201527f4f776e61626c653a206e6577206f776e657220697320746865207a65726f206160448201526564647265737360d01b6064820152608401610428565b61179f81611950565b50565b6001546040516370a0823160e01b81523060048201526000916001600160a01b0316906370a082319060240160206040518083038186803b1580156117e657600080fd5b505afa1580156117fa573d6000803e3d6000fd5b505050506040513d601f19601f8201168201806040525081019061181e9190611dd7565b9050808211156118af5760015460405163a9059cbb60e01b81526001600160a01b038581166004830152602482018490529091169063a9059cbb906044015b602060405180830381600087803b15801561187757600080fd5b505af115801561188b573d6000803e3d6000fd5b505050506040513d601f19601f820116820180604052508101906108d49190611da1565b60015460405163a9059cbb60e01b81526001600160a01b038581166004830152602482018590529091169063a9059cbb9060440161185d565b505050565b6040516001600160a01b0383166024820152604481018290526118e890849063a9059cbb60e01b906064015b60408051601f198184030181529190526020810180516001600160e01b03166001600160e01b031990931692909217909152611a14565b600080546001600160a01b038381166001600160a01b0319831681178455604051919092169283917f8be0079c531659141344cd1fd0a4f28419497f9722a3daafe3b4186f6b6457e09190a35050565b6040516001600160a01b03808516602483015283166044820152606481018290526108d49085906323b872dd60e01b90608401611919565b6001600160a01b038116600090815260018301602052604081205415155b90505b92915050565b60006119f6836001600160a01b038416611ae6565b6000611a69826040518060400160405280602081526020017f5361666545524332303a206c6f772d6c6576656c2063616c6c206661696c6564815250856001600160a01b0316611b359092919063ffffffff16565b8051909150156118e85780806020019051810190611a879190611da1565b6118e85760405162461bcd60e51b815260206004820152602a60248201527f5361666545524332303a204552433230206f7065726174696f6e20646964206e6044820152691bdd081cdd58d8d9595960b21b6064820152608401610428565b6000818152600183016020526040812054611b2d575081546001818101845560008481526020808220909301849055845484825282860190935260409020919091556119f9565b5060006119f9565b6060611b448484600085611b4e565b90505b9392505050565b606082471015611baf5760405162461bcd60e51b815260206004820152602660248201527f416464726573733a20696e73756666696369656e742062616c616e636520666f6044820152651c8818d85b1b60d21b6064820152608401610428565b843b611bfd5760405162461bcd60e51b815260206004820152601d60248201527f416464726573733a2063616c6c20746f206e6f6e2d636f6e74726163740000006044820152606401610428565b600080866001600160a01b03168587604051611c199190611ecf565b60006040518083038185875af1925050503d8060008114611c56576040519150601f19603f3d011682016040523d82523d6000602084013e611c5b565b606091505b50915091506111a782828660608315611c75575081611b47565b825115611c855782518084602001fd5b8160405162461bcd60e51b81526004016104289190611eeb565b60008083601f840112611cb157600080fd5b50813567ffffffffffffffff811115611cc957600080fd5b6020830191508360208260051b8501011115611ce457600080fd5b9250929050565b600060208284031215611cfd57600080fd5b8135611b4781612065565b60008060208385031215611d1b57600080fd5b823567ffffffffffffffff811115611d3257600080fd5b611d3e85828601611c9f565b90969095509350505050565b600080600060408486031215611d5f57600080fd5b833567ffffffffffffffff811115611d7657600080fd5b611d8286828701611c9f565b9094509250506020840135611d9681612065565b809150509250925092565b600060208284031215611db357600080fd5b8151611b478161207a565b600060208284031215611dd057600080fd5b5035919050565b600060208284031215611de957600080fd5b5051919050565b60008060408385031215611e0357600080fd5b823591506020830135611e1581612065565b809150509250929050565b600080600060608486031215611e3557600080fd5b833592506020840135611e4781612065565b91506040840135611d9681612065565b600080600060608486031215611e6c57600080fd5b83359250602084013591506040840135611d9681612065565b60008060008060808587031215611e9b57600080fd5b84359350602085013592506040850135611eb481612065565b91506060850135611ec48161207a565b939692955090935050565b60008251611ee1818460208701611ff2565b9190910192915050565b6020815260008251806020840152611f0a816040850160208701611ff2565b601f01601f19169190910160400192915050565b6020808252818101527f4f776e61626c653a2063616c6c6572206973206e6f7420746865206f776e6572604082015260600190565b9485526001600160a01b0393841660208601529190921660408401526060830191909152608082015260a00190565b60008219821115611f9557611f95612039565b500190565b600082611fb757634e487b7160e01b600052601260045260246000fd5b500490565b6000816000190483118215151615611fd657611fd6612039565b500290565b600082821015611fed57611fed612039565b500390565b60005b8381101561200d578181015183820152602001611ff5565b838111156108d45750506000910152565b600060001982141561203257612032612039565b5060010190565b634e487b7160e01b600052601160045260246000fd5b634e487b7160e01b600052603260045260246000fd5b6001600160a01b038116811461179f57600080fd5b801515811461179f57600080fdfea2646970667358221220d6cd58cf6462c0abff62a43476f1b715d1046cb9588c0d449771b62e8437909464736f6c63430008070033",
  "devdoc": {
    "kind": "dev",
    "methods": {
      "harvest(uint256,address)": {
        "params": {
          "_pid": "The index of the pool. See `poolInfo`.",
          "_to": "Receiver of EMBR rewards."
        }
      },
      "massUpdatePools(uint256[])": {
        "params": {
          "pids": "Pool IDs of all to be updated. Make sure to update all active pools."
        }
      },
      "owner()": {
        "details": "Returns the address of the current owner."
      },
      "renounceOwnership()": {
        "details": "Leaves the contract without owner. It will not be possible to call `onlyOwner` functions anymore. Can only be called by the current owner. NOTE: Renouncing ownership will leave the contract without an owner, thereby removing any functionality that is only available to the owner."
      },
      "set(uint256,uint256,address,bool)": {
        "params": {
          "_allocPoint": "New AP of the pool.",
          "_pid": "The index of the pool. See `poolInfo`.",
          "_rewarder": "Address of the rewarder delegate.",
          "overwrite": "True if _rewarder should be `set`. Otherwise `_rewarder` is ignored."
        }
      },
      "transferOwnership(address)": {
        "details": "Transfers ownership of the contract to a new account (`newOwner`). Can only be called by the current owner."
      },
      "withdrawAndHarvest(uint256,uint256,address)": {
        "params": {
          "_amount": "LP token amount to withdraw.",
          "_pid": "The index of the pool. See `poolInfo`.",
          "_to": "Receiver of the LP tokens and EMBR rewards."
        }
      }
    },
    "version": 1
  },
  "userdoc": {
    "kind": "user",
    "methods": {
      "harvest(uint256,address)": {
        "notice": "Harvest proceeds for transaction sender to `_to`."
      },
      "lpTokens(uint256)": {
        "notice": "Address of the LP token for each MCV pool."
      },
      "massUpdatePools(uint256[])": {
        "notice": "Update reward variables for all pools. Be careful of gas spending!"
      },
      "rewarder(uint256)": {
        "notice": "Address of each `IRewarder` contract in MCV."
      },
      "withdrawAndHarvest(uint256,uint256,address)": {
        "notice": "Withdraw LP tokens from MCV and harvest proceeds for transaction sender to `_to`."
      }
    },
    "version": 1
  },
  "storageLayout": {
    "storage": [
      {
        "astId": 7,
        "contract": "contracts/token/EmbrMasterChef.sol:EmbrMasterChef",
        "label": "_owner",
        "offset": 0,
        "slot": "0",
        "type": "t_address"
      },
      {
        "astId": 3119,
        "contract": "contracts/token/EmbrMasterChef.sol:EmbrMasterChef",
        "label": "embr",
        "offset": 0,
        "slot": "1",
        "type": "t_contract(EmbrToken)4323"
      },
      {
        "astId": 3121,
        "contract": "contracts/token/EmbrMasterChef.sol:EmbrMasterChef",
        "label": "treasuryAddress",
        "offset": 0,
        "slot": "2",
        "type": "t_address"
      },
      {
        "astId": 3123,
        "contract": "contracts/token/EmbrMasterChef.sol:EmbrMasterChef",
        "label": "embrPerBlock",
        "offset": 0,
        "slot": "3",
        "type": "t_uint256"
      },
      {
        "astId": 3136,
        "contract": "contracts/token/EmbrMasterChef.sol:EmbrMasterChef",
        "label": "poolInfo",
        "offset": 0,
        "slot": "4",
        "type": "t_array(t_struct(PoolInfo)3116_storage)dyn_storage"
      },
      {
        "astId": 3141,
        "contract": "contracts/token/EmbrMasterChef.sol:EmbrMasterChef",
        "label": "lpTokens",
        "offset": 0,
        "slot": "5",
        "type": "t_array(t_contract(IERC20)727)dyn_storage"
      },
      {
        "astId": 3144,
        "contract": "contracts/token/EmbrMasterChef.sol:EmbrMasterChef",
        "label": "lpTokenAddresses",
        "offset": 0,
        "slot": "6",
        "type": "t_struct(AddressSet)1607_storage"
      },
      {
        "astId": 3149,
        "contract": "contracts/token/EmbrMasterChef.sol:EmbrMasterChef",
        "label": "rewarder",
        "offset": 0,
        "slot": "8",
        "type": "t_array(t_contract(IRewarder)2134)dyn_storage"
      },
      {
        "astId": 3156,
        "contract": "contracts/token/EmbrMasterChef.sol:EmbrMasterChef",
        "label": "userInfo",
        "offset": 0,
        "slot": "9",
        "type": "t_mapping(t_uint256,t_mapping(t_address,t_struct(UserInfo)3109_storage))"
      },
      {
        "astId": 3159,
        "contract": "contracts/token/EmbrMasterChef.sol:EmbrMasterChef",
        "label": "totalAllocPoint",
        "offset": 0,
        "slot": "10",
        "type": "t_uint256"
      },
      {
        "astId": 3161,
        "contract": "contracts/token/EmbrMasterChef.sol:EmbrMasterChef",
        "label": "startBlock",
        "offset": 0,
        "slot": "11",
        "type": "t_uint256"
      }
    ],
    "types": {
      "t_address": {
        "encoding": "inplace",
        "label": "address",
        "numberOfBytes": "20"
      },
      "t_array(t_bytes32)dyn_storage": {
        "base": "t_bytes32",
        "encoding": "dynamic_array",
        "label": "bytes32[]",
        "numberOfBytes": "32"
      },
      "t_array(t_contract(IERC20)727)dyn_storage": {
        "base": "t_contract(IERC20)727",
        "encoding": "dynamic_array",
        "label": "contract IERC20[]",
        "numberOfBytes": "32"
      },
      "t_array(t_contract(IRewarder)2134)dyn_storage": {
        "base": "t_contract(IRewarder)2134",
        "encoding": "dynamic_array",
        "label": "contract IRewarder[]",
        "numberOfBytes": "32"
      },
      "t_array(t_struct(PoolInfo)3116_storage)dyn_storage": {
        "base": "t_struct(PoolInfo)3116_storage",
        "encoding": "dynamic_array",
        "label": "struct EmbrMasterChef.PoolInfo[]",
        "numberOfBytes": "32"
      },
      "t_bytes32": {
        "encoding": "inplace",
        "label": "bytes32",
        "numberOfBytes": "32"
      },
      "t_contract(EmbrToken)4323": {
        "encoding": "inplace",
        "label": "contract EmbrToken",
        "numberOfBytes": "20"
      },
      "t_contract(IERC20)727": {
        "encoding": "inplace",
        "label": "contract IERC20",
        "numberOfBytes": "20"
      },
      "t_contract(IRewarder)2134": {
        "encoding": "inplace",
        "label": "contract IRewarder",
        "numberOfBytes": "20"
      },
      "t_mapping(t_address,t_struct(UserInfo)3109_storage)": {
        "encoding": "mapping",
        "key": "t_address",
        "label": "mapping(address => struct EmbrMasterChef.UserInfo)",
        "numberOfBytes": "32",
        "value": "t_struct(UserInfo)3109_storage"
      },
      "t_mapping(t_bytes32,t_uint256)": {
        "encoding": "mapping",
        "key": "t_bytes32",
        "label": "mapping(bytes32 => uint256)",
        "numberOfBytes": "32",
        "value": "t_uint256"
      },
      "t_mapping(t_uint256,t_mapping(t_address,t_struct(UserInfo)3109_storage))": {
        "encoding": "mapping",
        "key": "t_uint256",
        "label": "mapping(uint256 => mapping(address => struct EmbrMasterChef.UserInfo))",
        "numberOfBytes": "32",
        "value": "t_mapping(t_address,t_struct(UserInfo)3109_storage)"
      },
      "t_struct(AddressSet)1607_storage": {
        "encoding": "inplace",
        "label": "struct EnumerableSet.AddressSet",
        "members": [
          {
            "astId": 1606,
            "contract": "contracts/token/EmbrMasterChef.sol:EmbrMasterChef",
            "label": "_inner",
            "offset": 0,
            "slot": "0",
            "type": "t_struct(Set)1306_storage"
          }
        ],
        "numberOfBytes": "64"
      },
      "t_struct(PoolInfo)3116_storage": {
        "encoding": "inplace",
        "label": "struct EmbrMasterChef.PoolInfo",
        "members": [
          {
            "astId": 3111,
            "contract": "contracts/token/EmbrMasterChef.sol:EmbrMasterChef",
            "label": "allocPoint",
            "offset": 0,
            "slot": "0",
            "type": "t_uint256"
          },
          {
            "astId": 3113,
            "contract": "contracts/token/EmbrMasterChef.sol:EmbrMasterChef",
            "label": "lastRewardBlock",
            "offset": 0,
            "slot": "1",
            "type": "t_uint256"
          },
          {
            "astId": 3115,
            "contract": "contracts/token/EmbrMasterChef.sol:EmbrMasterChef",
            "label": "accEmbrPerShare",
            "offset": 0,
            "slot": "2",
            "type": "t_uint256"
          }
        ],
        "numberOfBytes": "96"
      },
      "t_struct(Set)1306_storage": {
        "encoding": "inplace",
        "label": "struct EnumerableSet.Set",
        "members": [
          {
            "astId": 1301,
            "contract": "contracts/token/EmbrMasterChef.sol:EmbrMasterChef",
            "label": "_values",
            "offset": 0,
            "slot": "0",
            "type": "t_array(t_bytes32)dyn_storage"
          },
          {
            "astId": 1305,
            "contract": "contracts/token/EmbrMasterChef.sol:EmbrMasterChef",
            "label": "_indexes",
            "offset": 0,
            "slot": "1",
            "type": "t_mapping(t_bytes32,t_uint256)"
          }
        ],
        "numberOfBytes": "64"
      },
      "t_struct(UserInfo)3109_storage": {
        "encoding": "inplace",
        "label": "struct EmbrMasterChef.UserInfo",
        "members": [
          {
            "astId": 3106,
            "contract": "contracts/token/EmbrMasterChef.sol:EmbrMasterChef",
            "label": "amount",
            "offset": 0,
            "slot": "0",
            "type": "t_uint256"
          },
          {
            "astId": 3108,
            "contract": "contracts/token/EmbrMasterChef.sol:EmbrMasterChef",
            "label": "rewardDebt",
            "offset": 0,
            "slot": "1",
            "type": "t_uint256"
          }
        ],
        "numberOfBytes": "64"
      },
      "t_uint256": {
        "encoding": "inplace",
        "label": "uint256",
        "numberOfBytes": "32"
      }
    }
  }
}